:020000040800F2
:1000000000280020CD180008051800080B1800086B
:1000100011180008171800081D180008000000003B
:10002000000000000000000000000000231800088D
:100030002F180008000000003B18000847180008AF
:1000400015190008151900081519000815190008D8
:1000500015190008151900081519000815190008C8
:1000600015190008151900081519000815190008B8
:1000700015190008151900081519000815190008A8
:100080001519000815190008151900081519000898
:100090001519000815190008151900081519000888
:1000A0001519000815190008151900081519000878
:1000B000151900081519000800000000151900089E
:1000C00015190008000000000000000015190008C4
:1000D00000000000151900081519000800000000B4
:1000E000151900081519000815190008000000006E
:1000F0000000000000000000000000000000000000
:0C01000000000000000000005FF808F1A3
:1001100010B5054C237833B9044B13B10448AFF341
:1001200000800123237010BD70000020000000003B
:10013000643B000808B5034B1BB103490348AFF308
:10014000008008BD0000000074000020643B00082F
:10015000034613F8012B002AFBD1181A0138704707
:1001600081F0004102E000BF83F0004330B54FEA68
:1001700041044FEA430594EA050F08BF90EA020FD5
:100180001FBF54EA000C55EA020C7FEA645C7FEA68
:10019000655C00F0E2804FEA5454D4EB5555B8BF8B
:1001A0006D420CDD2C4480EA020281EA030382EAFC
:1001B000000083EA010180EA020281EA0303362D8E
:1001C00088BF30BD11F0004F4FEA01314FF4801C61
:1001D0004CEA113102D0404261EB410113F0004F73
:1001E0004FEA03334CEA133302D0524263EB43032A
:1001F00094EA050F00F0A780A4F10104D5F1200EC8
:100200000DDB02FA0EFC22FA05F2801841F1000122
:1002100003FA0EF2801843FA05F359410EE0A5F1F6
:1002200020050EF1200E012A03FA0EFC28BF4CF027
:10023000020C43FA05F3C01851EBE37101F00045DD
:1002400007D54FF0000EDCF1000C7EEB00006EEBEA
:100250000101B1F5801F1BD3B1F5001F0CD3490874
:100260005FEA30004FEA3C0C04F101044FEA4452CB
:1002700012F5800F80F09A80BCF1004F08BF5FEA52
:10028000500C50F1000041EB045141EA050130BD32
:100290005FEA4C0C404141EB010111F4801FA4F1D5
:1002A0000104E9D191F0000F04BF01460020B1FA2A
:1002B00081F308BF2033A3F10B03B3F120020CDA62
:1002C0000C3208DD02F1140CC2F10C0201FA0CF040
:1002D00021FA02F10CE002F11402D8BFC2F1200CA5
:1002E00001FA02F120FA0CFCDCBF41EA0C0190405B
:1002F000E41AA2BF01EB0451294330BD6FEA0404A4
:100300001F3C1CDA0C340EDC04F11404C4F120028E
:1003100020FA04F001FA02F340EA030021FA04F3A0
:1003200045EA030130BDC4F10C04C4F1200220FAF7
:1003300002F001FA04F340EA0300294630BD21FA35
:1003400004F0294630BD94F0000F83F4801306BFFB
:1003500081F480110134013D4EE77FEA645C18BFEF
:100360007FEA655C29D094EA050F08BF90EA020F86
:1003700005D054EA000C04BF1946104630BD91EA7E
:10038000030F1EBF0021002030BD5FEA545C05D181
:100390004000494128BF41F0004130BD14F58004C0
:1003A0003CBF01F5801130BD01F0004545F0FE4134
:1003B00041F470014FF0000030BD7FEA645C1ABF69
:1003C000194610467FEA655C1CBF0B46024650EAA0
:1003D000013406BF52EA033591EA030F41F40021CC
:1003E00030BD00BF90F0000F04BF0021704730B552
:1003F0004FF4806404F132044FF000054FF0000127
:1004000050E700BF90F0000F04BF0021704730B5E7
:100410004FF4806404F1320410F0004548BF4042BC
:100420004FF000013EE700BF42004FEAE2014FEA11
:1004300031014FEA02701FBF12F07F4393F07F4FEC
:1004400081F06051704732F07F4208BF704793F0EF
:100450007F4F04BF41F40021704730B54FF4607402
:1004600001F0004521F000411CE700BF50EA010205
:1004700008BF704730B54FF000050AE050EA0102AE
:1004800008BF704730B511F0004502D5404261EB1E
:1004900041014FF4806404F132045FEA915C3FF45F
:1004A000D8AE4FF003025FEADC0C18BF03325FEAFC
:1004B000DC0C18BF033202EBDC02C2F1200300FAAD
:1004C00003FC20FA02F001FA03FE40EA0E0021FAD2
:1004D00002F11444BDE600BF70B54FF0FF0C4CF4C0
:1004E000E06C1CEA11541DBF1CEA135594EA0C0F72
:1004F00095EA0C0F00F0DEF82C4481EA030621EAAD
:100500004C5123EA4C5350EA013518BF52EA0335E7
:1005100041F4801143F4801338D0A0FB02CE4FF099
:100520000005E1FB02E506F00042E0FB03E54FF0C9
:100530000006E1FB03569CF0000F18BF4EF0010EC1
:10054000A4F1FF04B6F5007F64F5407404D25FEABD
:100550004E0E6D4146EB060642EAC62141EA555170
:100560004FEAC52040EA5E504FEACE2EB4F1FD0CB2
:1005700088BFBCF5E06F1ED8BEF1004F08BF5FEA30
:10058000500E50F1000041EB045170BD06F00046E2
:1005900046EA010140EA020081EA0301B4EB5C048F
:1005A000C2BFD4EB0C0541EA045170BD41F4801187
:1005B0004FF0000E013C00F3AB8014F1360FDEBFAC
:1005C000002001F0004170BDC4F10004203C35DA88
:1005D0000C341BDC04F11404C4F1200500FA05F30B
:1005E00020FA04F001FA05F240EA020001F00042AC
:1005F00021F0004110EBD37021FA04F642EB060122
:100600005EEA430E08BF20EAD37070BDC4F10C044B
:10061000C4F1200500FA04F320FA05F001FA04F20F
:1006200040EA020001F0004110EBD37041F10001FB
:100630005EEA430E08BF20EAD37070BDC4F1200506
:1006400000FA05F24EEA020E20FA04F301FA05F26E
:1006500043EA020321FA04F001F0004121FA04F216
:1006600020EA020000EBD3705EEA430E08BF20EAE6
:10067000D37070BD94F0000F0FD101F00046400020
:1006800041EB010111F4801F08BF013CF7D041EAA2
:10069000060195F0000F18BF704703F000465200A6
:1006A00043EB030313F4801F08BF013DF7D043EA77
:1006B0000603704794EA0C0F0CEA135518BF95EA2D
:1006C0000C0F0CD050EA410618BF52EA4306D1D1B4
:1006D00081EA030101F000414FF0000070BD50EAD3
:1006E000410606BF1046194652EA430619D094EA5D
:1006F0000C0F02D150EA013613D195EA0C0F05D147
:1007000052EA03361CBF104619460AD181EA03019A
:1007100001F0004141F0FE4141F470014FF0000052
:1007200070BD41F0FE4141F4780170BD70B54FF0ED
:10073000FF0C4CF4E06C1CEA11541DBF1CEA13556D
:1007400094EA0C0F95EA0C0F00F0A7F8A4EB05044F
:1007500081EA030E52EA03354FEA013100F0888046
:100760004FEA03334FF0805545EA131343EA12630F
:100770004FEA022245EA111545EA10654FEA0026C4
:100780000EF000419D4208BF964244F1FD0404F57D
:10079000407402D25B084FEA3202B61A65EB0305D9
:1007A0005B084FEA32024FF480104FF4002CB6EB96
:1007B000020E75EB030E22BFB61A754640EA0C0016
:1007C0005B084FEA3202B6EB020E75EB030E22BF56
:1007D000B61A754640EA5C005B084FEA3202B6EB97
:1007E000020E75EB030E22BFB61A754640EA9C0056
:1007F0005B084FEA3202B6EB020E75EB030E22BF26
:10080000B61A754640EADC0055EA060E18D04FEAE3
:10081000051545EA16754FEA06164FEAC30343EA83
:1008200052734FEAC2025FEA1C1CC0D111F4801F50
:100830000BD141EA00014FF000004FF0004CB6E749
:1008400011F4801F04BF01430020B4F1FD0C88BFE8
:10085000BCF5E06F3FF6AFAEB5EB030C04BFB6EBF3
:10086000020C5FEA500C50F1000041EB045170BDE6
:100870000EF0004E4EEA113114EB5C04C2BFD4EB13
:100880000C0541EA045170BD41F480114FF0000E97
:10089000013C90E645EA060E8DE60CEA135594EA13
:1008A0000C0F08BF95EA0C0F3FF43BAF94EA0C0F16
:1008B0000AD150EA01347FF434AF95EA0C0F7FF48B
:1008C00025AF104619462CE795EA0C0F06D152EADF
:1008D00003353FF4FDAE1046194622E750EA4106C3
:1008E00018BF52EA43067FF4C5AE50EA41047FF4D4
:1008F0000DAF52EA43057FF4EBAE12E74FF0FF3C39
:1009000006E000BF4FF0010C02E000BF4FF0010C09
:100910004DF804CD4FEA410C7FEA6C5C4FEA430C82
:1009200018BF7FEA6C5C1BD001B050EA410C0CBFD1
:1009300052EA430C91EA030F02BF90EA020F002033
:10094000704710F1000F91EA030F58BF994208BF9A
:1009500090422CBFD8176FEAE37040F00100704757
:100960004FEA410C7FEA6C5C02D150EA013C07D1AE
:100970004FEA430C7FEA6C5CD6D152EA033CD3D0F9
:100980005DF8040B704700BF8446104662468C46F3
:100990001946634600E000BF01B5FFF7B7FF002826
:1009A00048BF10F1000F01BD4DF808EDFFF7F4FF4F
:1009B0000CBF012000205DF808FB00BF4DF808EDDA
:1009C000FFF7EAFF34BF012000205DF808FB00BFFD
:1009D0004DF808EDFFF7E0FF94BF012000205DF81F
:1009E00008FB00BF4DF808EDFFF7CEFF94BF0120D4
:1009F00000205DF808FB00BF4DF808EDFFF7C4FFCD
:100A000034BF012000205DF808FB00BF4FEA41021F
:100A100012F5001215D211D56FF47873B3EB625250
:100A200012D94FEAC12343F0004343EA505311F077
:100A3000004F23FA02F018BF404270474FF0000009
:100A4000704750EA013005D111F0004008BF6FF047
:100A5000004070474FF00000704700BF80F000403A
:100A600002E000BF81F0004142001FBF5FEA410386
:100A700092EA030F7FEA226C7FEA236C6AD04FEA86
:100A80001262D2EB1363C1BFD218414048404140CB
:100A9000B8BF5B42192B88BF704710F0004F40F47D
:100AA000000020F07F4018BF404211F0004F41F499
:100AB000000121F07F4118BF494292EA030F3FD065
:100AC000A2F1010241FA03FC10EB0C00C3F1200378
:100AD00001FA03F100F0004302D5494260EB400007
:100AE000B0F5000F13D3B0F1807F06D340084FEA72
:100AF000310102F10102FE2A51D2B1F1004F40EB67
:100B0000C25008BF20F0010040EA030070474900CE
:100B100040EB000010F4000FA2F10102EDD1B0FA99
:100B200080FCACF1080CB2EB0C0200FA0CF0AABF8E
:100B300000EBC25052421843BCBFD040184370472C
:100B400092F0000F81F4000106BF80F40000013232
:100B5000013BB5E74FEA41037FEA226C18BF7FEA09
:100B6000236C21D092EA030F04D092F0000F08BF4B
:100B70000846704790EA010F1CBF0020704712F032
:100B80007F4F04D1400028BF40F00040704712F171
:100B900000723CBF00F50000704700F0004343F0D6
:100BA000FE4040F4000070477FEA226216BF08460C
:100BB0007FEA23630146420206BF5FEA412390EACF
:100BC000010F40F4800070474FF0000304E000BFC5
:100BD00010F0004348BF40425FEA000C08BF704776
:100BE00043F0964301464FF000001CE050EA01023A
:100BF00008BF70474FF000030AE000BF50EA01024F
:100C000008BF704711F0004302D5404261EB41013B
:100C10005FEA010C02BF84460146002043F0B64360
:100C200008BFA3F18053A3F50003BCFA8CF2083A85
:100C3000A3EBC25310DB01FA02FC634400FA02FC8E
:100C4000C2F12002BCF1004F20FA02F243EB020095
:100C500008BF20F00100704702F1200201FA02FCF7
:100C6000C2F1200250EA4C0021FA02F243EB0200EA
:100C700008BF20EADC707047B0B58AB000AFF860FA
:100C8000B9607A603B6097F8443087F82630B7F84F
:100C90004030BB84FB6B3B623B8FBB833B68BB61DB
:100CA0007B687B61BB683B6107F11003184600F06D
:100CB0000EF8FB681D4607F110040FCC0FC594E831
:100CC000030085E80300F8682837BD46B0BD80B54D
:100CD00082B000AF78607B689B7D002B0CD1332104
:100CE000786800F061F83221786800F05DF828211A
:100CF000786800F059F803E03821786800F054F87B
:100D00000121786800F050F80C21786800F04CF868
:100D10000621786800F048F800BF0837BD4680BD5E
:100D200090B585B000AF786039600023FB730AE0AE
:100D3000FB7B3A6813441B781946786800F062F828
:100D4000FB7B0133FB73FC7B3868FFF701FA03463A
:100D50009C42EDD300BF1437BD4690BD80B582B034
:100D600000AF78600B46FB701346BB70FB78074AF8
:100D7000D25CBB781344DBB2803BDBB219467868A7
:100D800000F012F800BF0837BD4680BD6C3C00087B
:100D900080B582B000AF78600121786800F004F877
:100DA00000BF0837BD4680BD80B582B000AF786017
:100DB0000B46FB707B6898687B689B89002219460C
:100DC00001F091FB7B689B7D002B11D1FB781B0907
:100DD000DBB204221946786800F042F8FB7803F091
:100DE0000F03DBB204221946786800F039F805E0F9
:100DF000FB7808221946786800F032F800BF0837FF
:100E0000BD4680BD80B582B000AF78600B46FB70F8
:100E10007B6898687B689B890122194601F063FB17
:100E20007B689B7D002B11D1FB781B09DBB2042270
:100E30001946786800F014F8FB7803F00F03DBB272
:100E400004221946786800F00BF805E0FB780822C8
:100E50001946786800F004F800BF0837BD4680BD29
:100E600080B584B000AF78600B46FB701346BB7052
:100E70000023FB7319E07B681A68FB7B9B0013441B
:100E800018687B685A68FB7B5B0013441988FA7802
:100E9000FB7B42FA03F3DBB203F00103DBB21A4639
:100EA00001F021FBFB7B0133FB73FA7BBB789A4299
:100EB000E1D37B6818697B689B8A0122194601F09F
:100EC00012FB012000F08AFD7B6818697B689B8A11
:100ED0000022194601F007FB00BF1037BD4680BD58
:100EE00090B595B004AF00F017FD00F0B9FA00F02E
:100EF0006FFB00F005FB00F041FB0523FB63A248FC
:100F000000F066FEA14B07F12C040FCB84E80F0024
:100F10009F4A07F1240392E8030083E8030007F1E6
:100F20000C0007F1240207F12C01002303934FF476
:100F300000730293974B01934FF480730093954B8A
:100F4000FFF79AFE07F10C03002200211846FFF775
:100F500005FF07F10C0390491846FFF7E1FE07F182
:100F60000C03002201211846FFF7F8FE07F10C03DD
:100F70008A491846FFF7D4FE322000F02FFD07F112
:100F80000C031846FFF704FF322000F027FD07F19D
:100F90000C03002200211846FFF7E0FE07F10C03C6
:100FA0007F491846FFF7BCFE07F10C030022012120
:100FB0001846FFF7D3FE07F10C037A491846FFF7EE
:100FC000AFFE322000F00AFD07F10C031846FFF7D0
:100FD000DFFE322000F002FD6B4800F0A7FE034662
:100FE0001846FFF7F1FD03461846FFF71DFA64A304
:100FF000D3E90023FFF79AFB03460C461846214627
:101000004FF00002684BFFF7E3FC0346002B00F0B3
:10101000DC81FB6B002B00F05A8107F10C030022EE
:1010200000211846FFF79AFE07F10C035F491846A6
:10103000FFF776FE07F10C03002201211846FFF7A7
:101040008DFE07F10C035A491846FFF769FE0A2284
:101050005849F86B02F02CF907F10C030C2201211E
:101060001846FFF77BFE07F10C0352491846FFF7BD
:1010700057FE642000F0B2FC07F10C031846FFF79E
:1010800087FE01214C4801F017FA0346002B31D0AE
:10109000FB6B013BFB630CE007F10C03002200211A
:1010A0001846FFF75BFE07F10C0344491846FFF7AB
:1010B00037FE0121404801F0FFF90346002BEBD138
:1010C00007F10C031846FFF763FE07F10C0300223B
:1010D00000211846FFF742FE07F10C033849184675
:1010E000FFF71EFE322000F079FC07F10C031846D2
:1010F000FFF74EFE0221304801F0DEF90346002BD7
:1011000079D0FB6B042B61DCFB6B0133FB630CE0E0
:1011100007F10C03002200211846FFF71FFE07F11C
:101120000C0326491846FFF7FBFD0221224801F077
:10113000C3F90346002BEBD107F10C031846FFF768
:1011400027FE07F10C03002200211846FFF706FED8
:1011500007F10C031B491846FFF7E2FD07F10C03EA
:10116000002201211846FFF7F9FD07F10C0316498B
:101170001846FFF7D5FD322000F030FC36E000BF06
:10118000AE47E17A146E2040AC000020383C0008E5
:10119000483C0008000801407C3B00088C3B0008EC
:1011A000943B00089C3B000800003E40A83B000820
:1011B000B03B000890000020000C0140C03B00083C
:1011C000C83B0008D83B0008E43B000807F10C03CB
:1011D000002200211846FFF7C1FD07F10C038E49DC
:1011E0001846FFF79DFD642000F0F8FB07F10C03A3
:1011F0001846FFF7CDFD894800F098FD03461846D4
:10120000FFF7E2FC03461846FFF70EF980A3D3E987
:101210000023FFF78BFA03460C4618462146FFF7DA
:10122000F5FB02467E4B1A607E4A3B1D92E80300A6
:101230001860043319707C4B3B603946FF2303224E
:101240007A4801F088FE764B1B681A46784979483F
:1012500002F038F803469AB264237649734801F0E5
:101260007AFE391DFF230322704801F074FE07F156
:101270000C03002200211846FFF770FD07F10C0354
:101280006D491846FFF74CFD07F10C0300220121C0
:101290001846FFF763FD07F10C0366491846FFF790
:1012A0003FFD07F10C03022201211846FFF756FD0E
:1012B00007F10C0361491846FFF732FD322000F0B8
:1012C0008DFB07F10C031846FFF762FD84E607F17A
:1012D0000C03002200211846FFF740FD07F10C0324
:1012E00057491846FFF71CFD07F10C0300220121A6
:1012F0001846FFF733FD07F10C0352491846FFF774
:101300000FFD322000F06AFB07F10C031846FFF7CF
:101310003FFD02214C4801F0CFF80346002B3FF47B
:101320005BAEFB6B042B3ADCFB6B0133FB630CE025
:1013300007F10C03002200211846FFF70FFD07F10B
:101340000C0342491846FFF7EBFC02213E4801F02E
:10135000B3F80346002BEBD107F10C031846FFF757
:1013600017FD07F10C03002200211846FFF7F6FCD9
:1013700007F10C0336491846FFF7D2FC07F10C03BE
:10138000002201211846FFF7E9FC07F10C0331495F
:101390001846FFF7C5FC322000F020FB0FE007F1F4
:1013A0000C03002200211846FFF7D8FC07F10C03BC
:1013B00019491846FFF7B4FC642000F00FFB07F151
:1013C0000C031846FFF7E4FC06E607F10C030022C5
:1013D00000211846FFF7C2FC07F10C031E4918460E
:1013E000FFF79EFC07F10C03002201211846FFF7CE
:1013F000B5FC07F10C0319491846FFF791FC3220A0
:1014000000F0ECFA07F10C031846FFF7C1FCE3E526
:10141000AE47E17A146E2040F43B0008AC00002097
:101420008C000020503C0008543A2000DC000020D2
:10143000003C000898000020043C0008103C000814
:101440007C3B0008143C0008000C0140C03B000835
:10145000D83B0008E43B00081C3C0008283C00087E
:1014600080B594B000AF07F1280328220021184668
:1014700001F020FF07F1140300221A605A609A60FD
:10148000DA601A613B1D00221A605A609A60DA60C5
:101490000223BB620123BB631023FB6300237B6435
:1014A00007F12803184601F037F80346002B01D056
:1014B00000F0DCF80F237B610023BB610023FB619C
:1014C00000233B6200237B6207F1140300211846CE
:1014D00001F0A2FA0346002B01D000F0C7F8022366
:1014E0007B600023FB603B1D184601F031FC034686
:1014F000002B01D000F0BAF800BF5037BD4680BDC8
:1015000080B584B000AF3B1D00221A605A609A601B
:10151000184B194A1A60174B00229A60154B01228A
:101520001A73144B00221A75124B4FF46022DA61C1
:10153000104B00225A600F4B01221A610D4800F037
:101540006FFA0346002B01D000F090F801237B6076
:101550000123BB600023FB603B1D1946054800F0DA
:10156000F1FB0346002B01D000F080F800BF1037DC
:10157000BD4680BDAC0000200024014080B500AF16
:10158000114B124A1A60104B4FF416525A600E4B10
:1015900000229A600C4B0022DA600B4B00221A6189
:1015A000094B0C225A61084B00229A61064B00221B
:1015B000DA61054801F082FC0346002B01D000F0FF
:1015C00055F800BF80BD00BFDC000020003801409E
:1015D00080B586B000AF07F1080300221A605A6098
:1015E0009A60DA601E4B9B691D4A43F004039361C5
:1015F0001B4B9B6903F004037B607B68184B9B6962
:10160000174A43F008039361154B9B6903F00803E5
:101610003B603B6800224FF45E71124800F063FFAC
:101620004FF45E73BB600123FB6000233B61022328
:101630007B6107F1080319460A4800F0EBFD03231C
:10164000BB600023FB6000233B6107F108031946E0
:10165000054800F0DFFD00BF1837BD4680BD00BF64
:101660000010024000080140000C014080B400AFAF
:1016700072B6FEE780B485B000AF154B9B69144A83
:1016800043F001039361124B9B6903F00103BB60BC
:10169000BB680F4BDB690E4A43F08053D3610C4BA0
:1016A000DB6903F080537B607B680A4B5B68FB60FF
:1016B000FB6823F0E063FB60FB6843F08063FB6042
:1016C000044AFB68536000BF1437BD4680BC7047B6
:1016D000001002400000014080B588B000AF786083
:1016E00007F1100300221A605A609A60DA607B6882
:1016F0001B68144A934221D1134B9B69124A43F44D
:1017000000739361104B9B6903F40073FB60FB68EB
:101710000D4B9B690C4A43F0040393610A4B9B6990
:1017200003F00403BB60BB6802233B6103237B61BE
:1017300007F110031946054800F06CFD00BF203783
:10174000BD4680BD00240140001002400008014059
:1017500080B58AB000AF786007F1140300221A60E8
:101760005A609A60DA607B681B68224A93423DD1D6
:10177000214B9B69204A43F4804393611E4B9B6934
:1017800003F480433B613B691B4B9B691A4A43F05E
:1017900008039361184B9B6903F00803FB60FB6827
:1017A00040237B610223BB6103233B6207F11403E7
:1017B0001946124800F02EFD80237B610023BB6197
:1017C0000023FB6107F1140319460C4800F022FDC9
:1017D0000B4B5B687B627B6A43F0E0637B627B6AF6
:1017E00043F004037B62064A7B6A536000BF2837DC
:1017F000BD4680BD0038014000100240000C014091
:101800000000014080B400AFFEE780B400AFFEE707
:1018100080B400AFFEE780B400AFFEE780B400AF55
:10182000FEE780B400AF00BFBD4680BC704780B407
:1018300000AF00BFBD4680BC704780B400AF00BFA2
:10184000BD4680BC704780B500AF00F0ABF800BF6C
:1018500080BD000080B586B000AF7860144A154B9B
:10186000D31A7B617B693B61134B1B68002B02D150
:10187000114B124A1A60104B1A687B6813443A697C
:101880009A4207D201F0D2FC02460C2313604FF0BB
:10189000FF3309E0084B1B68FB60074B1A687B6845
:1018A0001344054A1360FB6818461837BD4680BDCF
:1018B0000028002000040000A000002028010020D3
:1018C00080B400AF00BFBD4680BC7047002103E07C
:1018D0000B4B5B58435004310A480B4B42189A4259
:1018E000F6D30A4A02E0002342F8043B084B9A422E
:1018F000F9D3FFF7E5FF01F09FFCFFF7F1FA70471E
:10190000E83C00080000002070000020700000206B
:1019100024010020FEE7000080B500AF084B1B68E3
:10192000074A43F010031360032000F03FFC00203F
:1019300000F008F8FFF79EFE0023184680BD00BFA8
:101940000020024080B582B000AF7860124B1A6868
:10195000124B1B7819464FF47A73B3FBF1F3B2FBC9
:10196000F3F3184600F049FC0346002B01D0012395
:101970000EE07B680F2B0AD8002279684FF0FF3009
:1019800000F01FFC064A7B681360002300E001237F
:1019900018460837BD4680BD000000200800002022
:1019A0000400002080B400AF054B1B781A46054B9D
:1019B0001B681344034A136000BFBD4680BC7047D8
:1019C000080000201C01002080B400AF024B1B68FF
:1019D0001846BD4680BC70471C01002080B584B00D
:1019E00000AF7860FFF7F0FFB8607B68FB60FB68D2
:1019F000B3F1FF3F05D0094B1B781A46FB6813442F
:101A0000FB6000BFFFF7E0FF0246BB68D31AFA682D
:101A10009A42F7D800BF1037BD4680BD08000020AD
:101A200080B586B000AF78600023FB7500233B6172
:101A30000023BB600023FB607B68002B01D10123E6
:101A4000BEE07B689B68002B7B689B6A002B09D1FA
:101A50007B680022DA627B68002283F824207868A1
:101A6000FFF73AFE786800F0B7FA0346FB757B682B
:101A70009B6A03F01003002B40F09980FB7D002B44
:101A800040F095807B689B6A23F4885323F002031F
:101A900043F002027B689A627B685A687B68DB6964
:101AA0001A437B681B7B5B001343BA681343BB601C
:101AB0007B689B68B3F5807F03D07B689B68012BB4
:101AC00002D14FF4807300E000233A6913433B6175
:101AD0007B681B7D012B19D17B681B7B002B09D1F7
:101AE0007B689B69013B5A033B69134343F40063E2
:101AF0003B610BE07B689B6A43F020027B689A6243
:101B00007B68DB6A43F001027B68DA627B681B68F2
:101B10005B6823F469417B681B683A690A435A6031
:101B20007B681B689A68284B13407A681268B9680A
:101B30000B4393607B689B68B3F5807F03D07B6821
:101B40009B68012B04D17B681B69013B1B05FB6073
:101B50007B681B68DB6A23F470017B681B68FA688A
:101B60000A43DA627B681B689A68184B1340BA68AC
:101B70009A420BD17B680022DA627B689B6A23F071
:101B8000030343F001027B689A6218E07B689B6A5A
:101B900023F0120343F010027B689A627B68DB6AD1
:101BA00043F001027B68DA620123FB7507E07B6882
:101BB0009B6A43F010027B689A620123FB75FB7DF0
:101BC00018461837BD4680BDFDF7E1FFFE0E1FFF2A
:101BD00080B584B000AF78600023FB737B6893F816
:101BE0002430012B01D1022398E07B68012283F885
:101BF0002420786800F09EF90346FB73FB7B002BE2
:101C000040F087807B689B6A23F4407323F00103D4
:101C100043F480727B689A627B681B68414A9342F6
:101C200005D1414B5B6803F47023002B15D17B6811
:101C30009B6A23F480127B689A627B681B685B68EE
:101C400003F48063002B26D07B689B6A23F4405307
:101C500043F480527B689A621DE07B689B6A43F480
:101C600080127B689A627B681B682F4A934204D07B
:101C70007B681B682B4A93420DD12B4B5B6803F4A6
:101C80008063002B07D07B689B6A23F4405343F4A6
:101C900080527B689A627B689B6A03F48053002BB6
:101CA00006D07B68DB6A23F006027B68DA6202E01A
:101CB0007B680022DA627B68002283F824207B683C
:101CC0001B686FF002021A607B681B689B6803F454
:101CD0006023B3F5602F13D17B681B68114A9342D0
:101CE00005D1114B5B6803F47023002B08D17B688E
:101CF0001B689A687B681B6842F4A0029A600CE03B
:101D00007B681B689A687B681B6842F480129A6043
:101D100003E07B68002283F82420FB7B1846103701
:101D2000BD4680BD002801400024014080B483B03E
:101D300000AF78607B681B68DB6C18460C37BD46CB
:101D400080BC704780B485B000AF786039600023F4
:101D5000FB730023BB607B6893F82430012B01D117
:101D60000223DCE07B68012283F824203B685B6867
:101D7000062B1CD87B681B68596B3B685A68134656
:101D80009B001344053B1F2202FA03F3DB43194077
:101D90003B6818683B685A6813469B001344053B30
:101DA00000FA03F27B681B680A435A633CE03B6815
:101DB0005B680C2B1CD87B681B68196B3B685A68E6
:101DC00013469B001344233B1F2202FA03F3DB4319
:101DD00019403B6818683B685A6813469B001344D7
:101DE000233B00FA03F27B681B680A431A631BE07B
:101DF0007B681B68D96A3B685A6813469B0013448A
:101E0000413B1F2202FA03F3DB4319403B68186889
:101E10003B685A6813469B001344413B00FA03F2A7
:101E20007B681B680A43DA623B681B68092B1CD974
:101E30007B681B68D9683B681A6813465B001344CB
:101E40001E3B072202FA03F3DB4319403B68986804
:101E50003B681A6813465B0013441E3B00FA03F20A
:101E60007B681B680A43DA6019E07B681B681969A4
:101E70003B681A6813465B001344072202FA03F317
:101E8000DB4319403B6898683B681A6813465B005F
:101E9000134400FA03F27B681B680A431A613B682B
:101EA0001B68102B03D03B681B68112B32D17B6859
:101EB0001B681D4A934225D17B681B689B6803F40D
:101EC0000003002B26D17B681B689A687B681B681F
:101ED00042F400029A603B681B68102B1AD1134B26
:101EE0001B68134AA2FB03239A0C13469B0013445E
:101EF0005B00BB6002E0BB68013BBB60BB68002BC2
:101F0000F9D107E07B689B6A43F020027B689A6204
:101F10000123FB737B68002283F82420FB7B184697
:101F20001437BD4680BC70470024014000000020EB
:101F300083DE1B4380B584B000AF78600023FB6074
:101F40000023BB607B681B689B6803F00103012BC7
:101F500039D07B681B689A687B681B6842F0010275
:101F60009A601B4B1B681B4AA2FB03239B0CBB60A4
:101F700002E0BB68013BBB60BB68002BF9D1FFF7F7
:101F800023FDF86018E0FFF71FFD0246FB68D31A37
:101F9000022B11D97B689B6A43F010027B689A621E
:101FA0007B68DB6A43F001027B68DA627B680022AF
:101FB00083F82420012307E07B681B689B6803F0FB
:101FC0000103012BDFD1002318461037BD4680BD29
:101FD0000000002083DE1B4380B584B000AF786032
:101FE0000023FB607B681B689B6803F00103012BE7
:101FF00027D17B681B689A687B681B6822F0010206
:102000009A60FFF7E1FCF86014E0FFF7DDFC0246A0
:10201000FB68D31A022B0DD97B689B6A43F0100230
:102020007B689A627B68DB6A43F001027B68DA6254
:10203000012307E07B681B689B6803F00103012B09
:10204000E3D0002318461037BD4680BD80B485B06C
:1020500000AF78607B6803F00703FB600C4BDB6824
:10206000BB60BA684FF6FF031340BB60FB681A02FF
:10207000BB68134343F0BF6343F40033BB60044ABF
:10208000BB68D36000BF1437BD4680BC704700BF3B
:1020900000ED00E080B400AF044BDB681B0A03F0E6
:1020A00007031846BD4680BC704700BF00ED00E046
:1020B00080B483B000AF03463960FB7197F90730F5
:1020C000002B0ADB3B68DAB20C4997F907301201A2
:1020D000D2B20B4483F800230AE03B68DAB2084925
:1020E000FB7903F00F03043B1201D2B20B441A76C2
:1020F00000BF0C37BD4680BC704700BF00E100E068
:1021000000ED00E080B489B000AFF860B9607A609B
:10211000FB6803F00703FB61FB69C3F10703042BB2
:1021200028BF0423BB61FB690433062B02D9FB697A
:10213000033B00E000237B614FF0FF32BB6902FAF2
:1021400003F3DA43BB681A407B699A404FF0FF31D2
:102150007B6901FA03F3D9437B680B4013431846AC
:102160002437BD4680BC704780B582B000AF786030
:102170007B68013BB3F1807F01D301230FE00A4A62
:102180007B68013B53600F214FF0FF30FFF790FF5A
:10219000054B00229A60044B07221A600023184660
:1021A0000837BD4680BD00BF10E000E080B582B0BA
:1021B00000AF78607868FFF749FF00BF0837BD4679
:1021C00080BD80B586B000AF0346B9607A60FB730E
:1021D00000237B61FFF75EFF78617A68B9687869F0
:1021E000FFF790FF024697F90F3011461846FFF7A8
:1021F0005FFF00BF1837BD4680BD80B582B000AF1D
:1022000078607868FFF7B0FF034618460837BD4688
:1022100080BD000080B48BB000AF786039600023CF
:102220007B6200233B6221E101227B6A02FA03F315
:10223000FB613B681B68FA691340BB61BA69FB69C3
:102240009A4240F010813B685B68122B34D0122B0D
:102250000DD8022B2BD0022B04D8002B31D0012B10
:102260001CD048E0032B43D0112B1BD043E0864AFF
:10227000934226D0844A934206D8844A934220D07F
:10228000834A93421DD036E0824A934219D0824A53
:10229000934216D0814A934213D02CE03B68DB680E
:1022A0003B6228E03B68DB6804333B6223E03B6829
:1022B000DB6808333B621EE03B68DB680C333B6243
:1022C00019E03B689B68002B02D104233B6212E0BB
:1022D0003B689B68012B05D108233B627B68FA6948
:1022E0001A6108E008233B627B68FA695A6102E0E0
:1022F00000233B6200BFBB69FF2B01D87B6801E074
:102300007B6804337B61BB69FF2B02D87B6A9B002F
:1023100002E07B6A083B9B003B617B691A680F21E6
:102320003B6901FA03F3DB431A40396A3B6901FA5E
:1023300003F31A437B691A603B685B6803F08053C0
:10234000002B00F09080564B9B69554A43F00103E7
:102350009361534B9B6903F00103BB60BB68514A17
:102360007B6A9B08023352F82330FB607B6A03F0E0
:1023700003039B000F2202FA03F3DB43FA681340C6
:10238000FB607B68484A93420DD07B68474A934282
:1023900007D07B68464A934201D1022304E003231D
:1023A00002E0012300E000237A6A02F003029200B7
:1023B0009340FA681343FB603A497B6A9B080233F7
:1023C000FA6841F823203B685B6803F48033002BF4
:1023D00006D0384B1A683749BB6913430B6006E0D7
:1023E000344B1A68BB69DB43324913400B603B68CE
:1023F0005B6803F40033002B06D02E4B5A682D493E
:10240000BB6913434B6006E02A4B5A68BB69DB4348
:10241000284913404B603B685B6803F48013002B32
:1024200006D0244B9A682349BB6913438B6006E0AE
:10243000204B9A68BB69DB431E4913408B603B68A5
:102440005B6803F40013002B06D01A4BDA681949B5
:10245000BB691343CB6006E0164BDA68BB69DB430C
:1024600014491340CB607B6A01337B623B681A6876
:102470007B6A22FA03F3002B7FF4D6AE00BF2C3721
:10248000BD4680BC704700BF000021100000111045
:102490000000121000003110000032100000221065
:1024A000001002400000014000080140000C014003
:1024B000001001400004014080B485B000AF786096
:1024C0000B467B807B689A687B881340002B02D088
:1024D0000123FB7301E00023FB73FB7B18461437D9
:1024E000BD4680BC704780B483B000AF78600B46B7
:1024F0007B8013467B707B78002B03D07A887B68C7
:102500001A6103E07B881A047B681A6100BF0C37EC
:10251000BD4680BC7047000080B586B000AF7860D3
:102520007B68002B01D101236CE27B681B6803F000
:102530000103002B00F08780924B5B6803F00C03D3
:10254000042B0CD08F4B5B6803F00C03082B12D1CB
:102550008C4B5B6803F48033B3F5803F0BD1894B20
:102560001B6803F40033002B6CD07B685B68002B86
:1025700068D1012346E27B685B68B3F5803F06D1F2
:10258000804B1B687F4A43F4803313602EE07B68E6
:102590005B68002B0CD17B4B1B687A4A23F4803399
:1025A0001360784B1B68774A23F4802313601DE087
:1025B0007B685B68B3F5A02F0CD1724B1B68714A26
:1025C00043F4802313606F4B1B686E4A43F48033DF
:1025D00013600BE06B4B1B686A4A23F48033136073
:1025E000684B1B68674A23F4802313607B685B6831
:1025F000002B13D0FFF7E8F9386108E0FFF7E4F9A2
:1026000002463B69D31A642B01D90323FAE15D4BDF
:102610001B6803F40033002BF0D014E0FFF7D4F96B
:10262000386108E0FFF7D0F902463B69D31A642B02
:1026300001D90323E6E1534B1B6803F40033002B5D
:10264000F0D100E000BF7B681B6803F00203002BA1
:1026500063D04C4B5B6803F00C03002B0BD0494B51
:102660005B6803F00C03082B1CD1464B5B6803F43A
:102670008033002B16D1434B1B6803F00203002B61
:1026800005D07B681B69012B01D00123BAE13D4BCA
:102690001B6823F0F8027B685B69DB003949134350
:1026A0000B603AE07B681B69002B20D0364B01227F
:1026B0001A60FFF789F9386108E0FFF785F90246EB
:1026C0003B69D31A022B01D903239BE12D4B1B68D5
:1026D00003F00203002BF0D02A4B1B6823F0F80212
:1026E0007B685B69DB00274913430B6015E0264BD1
:1026F00000221A60FFF768F9386108E0FFF764F913
:1027000002463B69D31A022B01D903237AE11D4B00
:102710001B6803F00203002BF0D17B681B6803F0F9
:102720000803002B3AD07B689B69002B19D0174B0C
:1027300001221A60FFF748F9386108E0FFF744F911
:1027400002463B69D31A022B01D903235AE10D4BF0
:102750005B6A03F00203002BF0D0012000F0DAFAEC
:102760001CE00A4B00221A60FFF72EF938610FE0D7
:10277000FFF72AF902463B69D31A022B08D9032333
:1027800040E100BF0010024000004242800442428B
:102790009E4B5B6A03F00203002BE9D17B681B6848
:1027A00003F00403002B00F0A6800023FB75974B79
:1027B000DB6903F08053002B0DD1944BDB69934A06
:1027C00043F08053D361914BDB6903F08053BB60CE
:1027D000BB680123FB758E4B1B6803F48073002BD1
:1027E00018D18B4B1B688A4A43F480731360FFF740
:1027F000EBF8386108E0FFF7E7F802463B69D31AC7
:10280000642B01D90323FDE0814B1B6803F4807323
:10281000002BF0D07B68DB68012B06D17B4B1B6A59
:102820007A4A43F0010313622DE07B68DB68002BDA
:102830000CD1764B1B6A754A23F001031362734B6C
:102840001B6A724A23F0040313621CE07B68DB6896
:10285000052B0CD16D4B1B6A6C4A43F004031362C9
:102860006A4B1B6A694A43F0010313620BE0674B32
:102870001B6A664A23F001031362644B1B6A634AB6
:1028800023F0040313627B68DB68002B15D0FFF78D
:102890009BF838610AE0FFF797F802463B69D31AC4
:1028A00041F28832934201D90323ABE0574B1B6AB4
:1028B00003F00203002BEED014E0FFF785F8386137
:1028C0000AE0FFF781F802463B69D31A41F28832E9
:1028D000934201D9032395E04C4B1B6A03F002039A
:1028E000002BEED1FB7D012B05D1484BDB69474A1C
:1028F00023F08053D3617B68DB69002B00F081807B
:10290000424B5B6803F00C03082B61D07B68DB69EA
:10291000022B46D13F4B00221A60FFF755F8386171
:1029200008E0FFF751F802463B69D31A022B01D9A0
:10293000032367E0354B1B6803F00073002BF0D1D5
:102940007B681B6AB3F5803F08D1304B5B6823F48A
:1029500000327B689B682D4913434B602B4B5B68AF
:1029600023F474127B68196A7B685B6A0B432749FE
:1029700013434B60274B01221A60FFF725F838619B
:1029800008E0FFF721F802463B69D31A022B01D970
:10299000032337E01D4B1B6803F00073002BF0D0BE
:1029A0002FE01C4B00221A60FFF70EF8386108E098
:1029B000FFF70AF802463B69D31A022B01D9032319
:1029C00020E0124B1B6803F00073002BF0D118E0DD
:1029D0007B68DB69012B01D1012313E00B4B5B68A2
:1029E000FB60FB6803F480327B681B6A9A4206D165
:1029F000FB6803F470127B685B6A9A4201D0012382
:102A000000E0002318461837BD4680BD0010024084
:102A1000007000406000424280B584B000AF786032
:102A200039607B68002B01D10123D0E06A4B1B6821
:102A300003F007033A689A4210D9674B1B6823F0EA
:102A4000070265493B6813430B60634B1B6803F047
:102A500007033A689A4201D00123B8E07B681B68FB
:102A600003F00203002B20D07B681B6803F00403F3
:102A7000002B05D0594B5B68584A43F4E063536020
:102A80007B681B6803F00803002B05D0534B5B6881
:102A9000524A43F460535360504B5B6823F0F0029A
:102AA0007B689B684D4913434B607B681B6803F050
:102AB0000103002B40D07B685B68012B07D1474B9B
:102AC0001B6803F40033002B15D101237FE07B68E2
:102AD0005B68022B07D1414B1B6803F00073002B8E
:102AE00009D1012373E03D4B1B6803F00203002B67
:102AF00001D101236BE0394B5B6823F003027B6853
:102B00005B68364913434B60FEF75EFFF8600AE0EE
:102B1000FEF75AFF0246FB68D31A41F2883293420D
:102B200001D9032353E02D4B5B6803F00C027B6853
:102B30005B689B009A42EBD1274B1B6803F00703AD
:102B40003A689A4210D2244B1B6823F007022249AC
:102B50003B6813430B60204B1B6803F007033A6884
:102B60009A4201D0012332E07B681B6803F0040322
:102B7000002B08D0194B5B6823F4E0627B68DB68AC
:102B8000164913434B607B681B6803F00803002B56
:102B900009D0124B5B6823F460527B681B69DB0031
:102BA0000E4913434B6000F021F801460B4B5B6864
:102BB0001B0903F00F030A4AD35C21FA03F3094A05
:102BC0001360094B1B681846FEF7BCFE002318462D
:102BD0001037BD4680BD00BF0020024000100240FB
:102BE000703C0008000000200400002090B48AB06F
:102BF00000AF2A4B3C1D0FCB84E80F00284B1B88ED
:102C00003B800023FB610023BB6100237B62002328
:102C10007B6100233B62234B5B68FB61FB6903F034
:102C20000C03042B02D0082B03D02DE01E4B3B627B
:102C30002DE0FB699B0C03F00F0307F128021344FE
:102C400013F8243C7B61FB6903F48033002B13D021
:102C5000144B5B685B0C03F0010307F1280213447B
:102C600013F8283CBB617B690F4A02FB03F2BB6986
:102C7000B2FBF3F37B6204E07B690C4A02FB03F3D3
:102C80007B627B6A3B6202E0074B3B6200BF3B6AB0
:102C900018462837BD4690BC704700BF583C000816
:102CA000683C00080010024000127A0000093D0054
:102CB00080B400AF024B1B681846BD4680BC70470D
:102CC0000000002080B500AFFFF7F2FF0146054B82
:102CD0005B681B0A03F00703034AD35C21FA03F382
:102CE000184680BD00100240803C000880B500AF4F
:102CF000FFF7DEFF0146054B5B68DB0A03F00703C5
:102D0000034AD35C21FA03F3184680BD0010024049
:102D1000803C000880B485B000AF78600A4B1B6827
:102D20000A4AA2FB03235B0A7A6802FB03F3FB60F7
:102D300000BFFB685A1EFA60002BF9D100BF1437A0
:102D4000BD4680BC704700BF00000020D34D62101C
:102D500080B586B000AF786000233B610023FB6044
:102D60007B681B6803F00103002B7DD00023FB75FB
:102D70004F4BDB6903F08053002B0DD14C4BDB69CB
:102D80004B4A43F08053D361494BDB6903F08053D6
:102D9000BB60BB680123FB75464B1B6803F4807363
:102DA000002B18D1434B1B68424A43F480731360D5
:102DB000FEF70AFE386108E0FEF706FE02463B69B0
:102DC000D31A642B01D903236DE03A4B1B6803F43B
:102DD0008073002BF0D0364B1B6A03F44073FB600A
:102DE000FB68002B2ED07B685B6803F44073FA68A5
:102DF0009A4227D02E4B1B6A23F44073FB602E4B64
:102E000001221A602C4B00221A60294AFB681362C7
:102E1000FB6803F00103002B14D0FEF7D5FD3861E9
:102E20000AE0FEF7D1FD02463B69D31A41F288322F
:102E3000934201D9032336E01D4B1B6A03F00203C2
:102E4000002BEED01A4B1B6A23F440727B685B6840
:102E5000174913430B62FB7D012B05D1144BDB6932
:102E6000134A23F08053D3617B681B6803F002038D
:102E7000002B08D00E4B5B6823F440427B689B68B4
:102E80000B4913434B607B681B6803F01003002B56
:102E900008D0074B5B6823F480027B68DB68044939
:102EA00013434B60002318461837BD4680BD00BF52
:102EB00000100240007000404004424280B582B0E1
:102EC00000AF78607B68002B01D101233FE07B6875
:102ED00093F83930DBB2002B06D17B68002283F8EF
:102EE00038207868FEF734FC7B68242283F8392088
:102EF0007B681B68DA687B681B6822F40052DA6022
:102F0000786800F005F97B681B681A697B681B68A4
:102F100022F490421A617B681B685A697B681B68BF
:102F200022F02A025A617B681B68DA687B681B689A
:102F300042F40052DA607B680022DA637B68202268
:102F400083F839207B68202283F83A200023184632
:102F50000837BD4680BD80B58AB002AFF860B96061
:102F60003B601346FB8000237B61FB6893F839309C
:102F7000DBB2202B7CD1BB68002B02D0FB88002B5E
:102F800001D1012375E0FB6893F83830012B01D1A2
:102F900002236EE0FB68012283F83820FB680022E0
:102FA000DA63FB68212283F83920FEF70DFD786192
:102FB000FB68FA889A84FB68FA88DA84FB689B6865
:102FC000B3F5805F08D1FB681B69002B04D1002397
:102FD000FB61BB68BB6103E0BB68FB610023BB61B5
:102FE000FB68002283F838202AE03B6800937B6965
:102FF00000228021F86800F040F80346002B01D041
:10300000032336E0FB69002B0BD1BB691B881A46F2
:10301000FB681B68C2F308025A60BB690233BB61DC
:1030200007E0FB691A78FB681B685A60FB6901338B
:10303000FB61FB68DB8C9BB2013B9AB2FB68DA84D4
:10304000FB68DB8C9BB2002BCFD13B6800937B6984
:1030500000224021F86800F010F80346002B01D050
:10306000032306E0FB68202283F83920002300E0D8
:10307000022318462037BD4680BD80B584B000AF1E
:10308000F860B9603B601346FB712CE0BB69B3F19B
:10309000FF3F28D0BB69002B07D0FEF795FC024606
:1030A0003B68D31ABA699A421DD2FB681B68DA687A
:1030B000FB681B6822F4D072DA60FB681B685A69EF
:1030C000FB681B6822F001025A61FB68202283F82A
:1030D0003920FB68202283F83A20FB68002283F81D
:1030E000382003230FE0FB681B681A68BB68134095
:1030F000BA689A420CBF01230023DBB21A46FB795F
:103100009A42C3D0002318461037BD4680BD000048
:1031100080B584B000AF78607B681B681B6923F4BE
:1031200040517B68DA687B681B680A431A617B68D8
:103130009A687B681B691A437B685B691343BB60B1
:103140007B681B68DB6823F4B05323F00C037A68B8
:103150001268B9680B43D3607B681B685B6923F412
:1031600040717B689A697B681B680A435A617B6877
:103170001B682C4A934203D1FFF7B8FDF86002E0C8
:10318000FFF7A0FDF860FA6813469B0013449A000D
:103190001A447B685B689B00B2FBF3F3224AA2FBF4
:1031A00003235B091901FA6813469B0013449A0034
:1031B0001A447B685B689B00B2FBF3F21A4BA3FBDB
:1031C00002035B09642000FB03F3D31A1B013233B3
:1031D000154AA2FB03235B0903F0F0031944FA68C4
:1031E00013469B0013449A001A447B685B689B005B
:1031F000B2FBF3F20C4BA3FB02035B09642000FB60
:1032000003F3D31A1B013233074AA2FB03235B09E2
:1032100003F00F027B681B680A449A6000BF1037F6
:10322000BD4680BD003801401F85EB51014B186839
:10323000704700BF0C00002070B500250C4E0D4CEF
:10324000A41BA410A54209D100F08CFC00250A4E55
:103250000A4CA41BA410A54205D170BD56F8253018
:1032600098470135EEE756F8253098470135F2E7E3
:10327000E03C0008E03C0008E03C0008E43C0008BA
:10328000931E222B10B50C4604D900231C460B704C
:10329000204610BD0A2A09D1002807DA2D230B7019
:1032A00001214042214400F02DF8F1E70021F9E727
:1032B000FFF7E6BF03460244934200D1704703F88C
:1032C000011BF9E70EB46FF0004100B59CB01DABD7
:1032D00002900690079104910848094953F8042B7D
:1032E0000591006802A9019300F0A4F80022029B56
:1032F0001A701CB05DF804EB03B070470C0000209E
:103300000802FFFFF0B58BB005460C466E461B4B1E
:1033100003F1200C374618685968083303C7634522
:103320003E46F7D118681B7938603B71931E222BFB
:103330004FF0000304D923701C4620460BB0F0BDAB
:10334000661EB5FBF2F002FB10550AAF3D4415F8BE
:10335000285C591C06F8015F054668B9224660548E
:103360002344191B101B8142E7DD1178187802F8FD
:10337000010B03F80119F4E70B46E2E7883C00086B
:103380002DE9F0478E6882469E420C46904699464B
:1033900037D88A8912F4906F31D0022325680969E1
:1033A0006F1A656905EB450595FBF3F509F1010316
:1033B0003B449D4238BF1D46530530D5294600F099
:1033C00037FB064650B90C234FF0FF30CAF80030E7
:1033D000A38943F04003A381BDE8F0873A46216901
:1033E00000F0B6FAA38923F4906343F08003A3812D
:1033F00026613E4426604E466561ED1BA5604E4544
:1034000000D94E4632464146206800F0ACFAA36827
:1034100000209B1BA36023681E442660DCE72A462D
:1034200000F060FB06460028E2D12169504600F01A
:10343000B3FAC8E72DE9F04F1D468B899DB01F06F2
:1034400080460C4616460FD50B696BB9402100F03B
:10345000EFFA2060206128B90C23C8F800304FF043
:10346000FF30C8E0402363610023099320238DF8D7
:10347000293030234FF0010B8DF82A300395374661
:103480003D4615F8013B0BB1252B3ED1B7EB060AA3
:103490000BD05346324621464046FFF771FF0130BC
:1034A00000F0A480099B534409933B78002B00F063
:1034B0009D8000234FF0FF32CDE90523049307934D
:1034C0008DF853301A932F46052217F8011B5048E8
:1034D00000F030FA049BD0B9D90644BF20228DF801
:1034E00053201A0744BF2B228DF853202A782A2A0A
:1034F00015D02F4600200A25079A394611F8013BBE
:10350000303B092B4DD9B8B10FE02F46B8E7404A00
:103510003D46801A0BFA00F018430490D3E7039A53
:10352000111D12680391002A01DB079204E0524248
:1035300043F00203079204933B782E2B0CD17B7847
:103540002A2B33D1039B02371A1D1B680392002BD1
:10355000B8BF4FF0FF3305932E4D0322397828462C
:1035600000F0E8F938B14023401B03FA00F0049B57
:103570000137034304933978062227487E1C8DF8CF
:10358000281000F0D7F9002838D0244B13BB039B38
:10359000073323F0070308330393099B4B44099334
:1035A0006DE705FB023201200F46A6E700230A253E
:1035B000194601370593384610F8012B303A092A8D
:1035C00003D9002BC8D00591C6E705FB01210123D3
:1035D0000746F0E703AB00932246114B04A940468F
:1035E000AFF30080B0F1FF3F8146D6D1A3895B06DF
:1035F0003FF535AF09981DB0BDE8F08F03AB0093E0
:103600002246074B04A9404600F082F8EAE700BFD3
:10361000AD3C0008B33C0008B73C000800000000C7
:10362000813300082DE9F04791461F468A680B69EF
:1036300006469342B8BF1346C9F8003091F84320BC
:103640000C46DDF8208012B10133C9F80030236840
:10365000990642BFD9F800300233C9F80030256816
:1036600015F0060507D104F1190AE368D9F800201E
:103670009B1AAB4229DC94F843302268003318BF10
:10368000012392062ED404F1430239463046C04746
:10369000013021D02368E56803F00603042B18BF2E
:1036A0000025D9F800204FF0000908BFAD1AA36823
:1036B000226908BF25EAE5759342C4BF9B1AED183D
:1036C0001A344D451AD1002008E0012352463946EC
:1036D0003046C047013003D14FF0FF30BDE8F087DE
:1036E0000135C2E73020E11881F843005A1C94F8F4
:1036F00045102244023382F84310C4E701232246D6
:1037000039463046C0470130E6D009F10109D8E713
:103710002DE9F04301F1430C0C46097E85B06E297A
:103720001746064698460C9A00F0B38022D86329C3
:1037300036D00AD8002900F0B980582900F08380DB
:1037400004F1420584F8421032E0642901D069296D
:10375000F6D120681368050603F104012AD51B6819
:103760001160002B03DA2D225B4284F843206F485E
:103770000A2239E0732900F09D8008D86F2920D0F3
:103780007029DDD1236843F02003236003E075290D
:1037900017D07829D4D17823654884F8453055E08E
:1037A000136804F14205191D1B68116084F842304A
:1037B00001238CE01B6810F0400F116018BF1BB292
:1037C000CFE713682568181D1060280601D51B680F
:1037D00002E06806FBD51B886F2914BF0A22082265
:1037E0005248002184F843106568002DA560C0F29E
:1037F0009580216821F004012160002B3DD1002D2E
:1038000040F08E806546082A0BD12368DB0708D577
:10381000236962689A42DEBF302305F8013C05F156
:10382000FF35ACEB05032361CDF800803B4603AACE
:1038300021463046FFF7F6FE01304DD14FF0FF3004
:1038400005B0BDE8F083394884F845101368216855
:103850001D1D1B6815600A060BD5CA0744BF41F041
:10386000200121601BB9226822F020022260102270
:10387000B7E74D0648BF9BB2EFE76546B3FBF2F1F1
:1038800002FB1133C35C05F8013D0B460029F5D15D
:10389000B9E713682568181D6169106028061B6860
:1038A00001D5196002E06A06FBD519800023654640
:1038B0002361B9E71368191D11601D686268002152
:1038C000284600F037F808B1401B60606368236148
:1038D000002384F84330A7E723692A463946304657
:1038E000C0470130AAD023689B0713D4E068039B2C
:1038F0009842B8BF1846A3E701234A4639463046E6
:10390000C04701309AD00135E368039A9B1AAB4255
:10391000F2DCEBE7002504F11909F5E7002BACD147
:10392000037804F1420584F842306CE7BE3C00089D
:10393000CF3C000810B5C9B202449042034601D101
:10394000002303E01C7801308C42F6D1184610BDEC
:1039500010B5431E0A44914200D110BD11F8014B2D
:1039600003F8014FF7E7884210B501EB020307D8CF
:10397000421E99420AD011F8014B02F8014FF8E7B4
:103980008342F5D98118D21AD34200D110BD13F861
:10399000014D01F8014DF7E738B50546002943D040
:1039A00051F8043C0C1F002BB8BFE41800F0D0F80D
:1039B0001E4A1368104633B9636014602846BDE898
:1039C000384000F0C6B8A3420BD921686218934270
:1039D00001BF1A685B685218226063600460EDE7FB
:1039E00013465A680AB1A242FAD919685818A04277
:1039F0000BD120680144581882421960DED110684A
:103A00005268014419605A60D8E702D90C232B6030
:103A1000D4E7206821188A4201BF1168526809184A
:103A2000216062605C60C9E738BD00BFA40000206F
:103A300070B5CD1C25F0030508350C2D38BF0C25BD
:103A4000002D064601DBA94203D90C233360002078
:103A500070BD00F07DF8214A1468214691B9204CD0
:103A600023681BB9304600F063F8206029463046D1
:103A700000F05EF8431C24D10C233046336000F084
:103A800068F8E4E70B685B1B18D40B2B0FD90B60AD
:103A9000CC18CD50304600F05CF804F10B00231D2B
:103AA00020F00700C31AD3D05A42E250D0E74B6847
:103AB0008C4216BF636013600C46EBE70C46496806
:103AC000CCE7C41C24F00304A04205D0211A3046E0
:103AD00000F02EF80130CFD02560DBE7A4000020F5
:103AE000A8000020F8B5074614460E4621B9BDE8E7
:103AF000F8401146FFF79CBF22B9FFF74DFF25465E
:103B00002846F8BD00F026F8A0420FD221463846DC
:103B1000FFF78EFF05460028F2D031462246FFF718
:103B200017FF31463846FFF737FFE9E73546E7E745
:103B300038B50023054C054608462360FDF78AFE8C
:103B4000431C02D1236803B12B6038BD2001002043
:103B50007047704751F8043C181F002BBCBF0B582E
:103B6000C0187047F8B500BFF8BC08BC9E46704747
:0C3B7000F8B500BFF8BC08BC9E467047CA
:103B7C004553544143494F4E414D454E544F00001F
:103B8C00444544454C00000053454A4100000000A8
:103B9C0042454D2D56494E444F0000005641474179
:103BAC0053000000444953504F4E49564549533D2C
:103BBC0020000000414755415244450053494741BC
:103BCC0020454D2046524554450000004F42524975
:103BDC004741444F00000000564F4C54452053457C
:103BEC004D50524500000000444953504F4E495629
:103BFC00454C00002564000054454D50455241543D
:103C0C0055524100430000004C4F5441444F0000BA
:103C1C00494E43454E44494F000000004556414330
:103C2C00554152204E4F5721090000000008014019
:103C3C000008014000080140000801400800100085
:103C4C002000400020430D0A000000000203040580
:103C5C00060708090A0B0C0D0E0F101001020000CC
:103C6C00004010500000000000000000010203049E
:103C7C00060708090000000001020304303132334A
:103C8C003435363738396162636465666768696AEA
:103C9C006B6C6D6E6F707172737475767778797AF0
:103CAC0000232D302B2000686C4C00656667454660
:103CBC00470030313233343536373839414243449A
:103CCC00454600303132333435363738396162632A
:043CDC0064656600B5
:043CE00035010008A2
:043CE40011010008C2
:103CE8000024F40010000000010000001000002073
:103CF80000000000000000000000000000000000BC
:103D080000000000000000000000000000000000AB
:103D1800000000000000000000000000000000009B
:103D2800000000000000000000000000000000008B
:103D3800000000000000000000000000000000007B
:103D4800000000000000000000000000000000006B
:04000005080018CD0A
:00000001FF
