:020000040800F2
:1000000000280020350900089D070008A307000804
:10001000A9070008AF070008B507000800000000A6
:10002000000000000000000000000000BB07000806
:10003000C707000800000000D3070008DF0700081A
:100040007D0900087D0900087D0900087D09000878
:100050007D0900087D0900087D0900087D09000868
:100060007D0900087D0900087D0900087D09000858
:100070007D0900087D0900087D0900087D09000848
:100080007D0900087D0900087D0900087D09000838
:100090007D0900087D0900087D0900087D09000828
:1000A0007D0900087D0900087D0900087D09000818
:1000B0007D0900087D090008000000007D09000896
:1000C0007D09000800000000000000007D09000814
:1000D000000000007D0900087D0900080000000004
:1000E0007D0900087D0900087D0900080000000066
:1000F0000000000000000000000000000000000000
:0C01000000000000000000005FF808F1A3
:10010C0010B5054C237833B9044B13B10448AFF345
:10011C0000800123237010BD70000020000000003F
:10012C000821000808B5034B1BB103490348AFF382
:10013C00008008BD000000007400002008210008A9
:10014C00034613F8012B002AFBD1181A013870470B
:10015C00B0B58AB000AFF860B9607A603B6097F8D0
:10016C00443087F82630B7F84030BB84FB6B3B62D9
:10017C003B8FBB833B68BB617B687B61BB683B612E
:10018C0007F11003184600F00EF8FB681D4607F146
:10019C0010040FCC0FC594E8030085E80300F86841
:1001AC002837BD46B0BD80B582B000AF78607B68A3
:1001BC009B7D002B0CD13321786800F061F8322143
:1001CC00786800F05DF82821786800F059F803E0B1
:1001DC003821786800F054F80121786800F050F864
:1001EC000C21786800F04CF80621786800F048F88B
:1001FC0000BF0837BD4680BD90B585B000AF7860B4
:10020C0039600023FB730AE0FB7B3A6813441B78CC
:10021C001946786800F062F8FB7B0133FB73FC7BBA
:10022C003868FFF78DFF03469C42EDD300BF1437AF
:10023C00BD4690BD80B582B000AF78600B46FB70B8
:10024C001346BB70FB78074AD25CBB781344DBB215
:10025C00803BDBB21946786800F012F800BF083713
:10026C00BD4680BD9C21000880B582B000AF78608F
:10027C000121786800F004F800BF0837BD4680BD46
:10028C0080B582B000AF78600B46FB707B689868D5
:10029C007B689B890022194600F03DFE7B689B7DA4
:1002AC00002B11D1FB781B09DBB2042219467868AC
:1002BC0000F042F8FB7803F00F03DBB2042219467E
:1002CC00786800F039F805E0FB7808221946786860
:1002DC0000F032F800BF0837BD4680BD80B582B053
:1002EC0000AF78600B46FB707B6898687B689B89D5
:1002FC000122194600F00FFE7B689B7D002B11D16B
:10030C00FB781B09DBB204221946786800F014F85C
:10031C00FB7803F00F03DBB204221946786800F077
:10032C000BF805E0FB7808221946786800F004F811
:10033C0000BF0837BD4680BD80B584B000AF786083
:10034C000B46FB701346BB700023FB7319E07B68F4
:10035C001A68FB7B9B00134418687B685A68FB7B0C
:10036C005B0013441988FA78FB7B42FA03F3DBB287
:10037C0003F00103DBB21A4600F0CDFDFB7B013329
:10038C00FB73FA7BBB789A42E1D37B6818697B6874
:10039C009B8A0122194600F0BEFD012000F04CFBA7
:1003AC007B6818697B689B8A0022194600F0B3FDB4
:1003BC0000BF1037BD4680BD90B595B004AF052386
:1003CC00FB6300F0D7FA00F023F900F05DF9844BE1
:1003DC0007F12C040FCB84E80F00824A07F12403A9
:1003EC0092E8030083E8030007F10C0007F12402F4
:1003FC0007F12C01002303934FF4007302937A4B03
:10040C0001934FF480730093774BFFF7A1FE07F134
:10041C000C03002200211846FFF70CFF07F10C0318
:10042C0072491846FFF7E8FE07F10C030022012180
:10043C001846FFF7FFFE07F10C036D491846FFF74E
:10044C00DBFE322000F0F8FA07F10C031846FFF738
:10045C000BFF322000F0F0FA07F10C030022002110
:10046C001846FFF7E7FE07F10C0362491846FFF741
:10047C00C3FE07F10C03002201211846FFF7DAFE38
:10048C0007F10C035C491846FFF7B6FE322000F06A
:10049C00D3FA07F10C031846FFF7E6FE322000F002
:1004AC00CBFA07F10C03002200211846FFF7C2FE1D
:1004BC0007F10C0351491846FFF79EFE07F10C0398
:1004CC00002201211846FFF7B5FE3B1D0A221946F2
:1004DC00F86B01F065F93B1D184601F0C7F93A1DA0
:1004EC0007F10C0311461846FFF786FE642000F056
:1004FC00A3FA07F10C031846FFF7B6FE012140489A
:10050C0000F0F2FC0346002B30D0FB6B002B18D014
:10051C00FB6B013BFB630CE007F10C030022002199
:10052C001846FFF787FE07F10C0336491846FFF70C
:10053C0063FE0121324800F0D7FC0346002BEBD1BF
:10054C000FE007F10C03002200211846FFF772FEA2
:10055C0007F10C032C491846FFF74EFE642000F0FF
:10056C006BFA07F10C031846FFF77EFE02212448B4
:10057C0000F0BAFC0346002B93D0FB6B042B18DC69
:10058C00FB6B0133FB630CE007F10C030022002131
:10059C001846FFF74FFE07F10C031A491846FFF7F0
:1005AC002BFE0221164800F09FFC0346002BEBD1DA
:1005BC000FE007F10C03002200211846FFF73AFE6A
:1005CC0007F10C0311491846FFF716FE642000F0E2
:1005DC0033FA07F10C031846FFF746FE61E700BF3C
:1005EC00702100088021000800080140202100082B
:1005FC003021000838210008402100084C21000857
:10060C00000C0140542100085C2100086421000802
:10061C0080B590B000AF07F11803282200211846CE
:10062C0001F0C0F83B1D00221A605A609A60DA6033
:10063C001A610223BB610123BB621023FB620023FE
:10064C007B6307F11803184600F07EFC0346002B71
:10065C0001D000F067F80F237B600023BB60002300
:10066C00FB6000233B6100237B613B1D002118468E
:10067C0000F0EAFE0346002B01D000F053F800BF57
:10068C004037BD4680BD000080B586B000AF07F195
:10069C00080300221A605A609A60DA601E4B9B694C
:1006AC001D4A43F0040393611B4B9B6903F0040345
:1006BC007B607B68184B9B69174A43F00803936176
:1006CC00154B9B6903F008033B603B6800224FF419
:1006DC005E71124800F01FFC4FF45E73BB60012387
:1006EC00FB6000233B6102237B6107F10803194681
:1006FC000A4800F0A7FA0323BB600023FB60002329
:10070C003B6107F108031946054800F09BFA00BF4E
:10071C001837BD4680BD00BF0010024000080140E4
:10072C00000C014080B400AF72B6FEE780B485B017
:10073C0000AF154B9B69144A43F001039361124BB4
:10074C009B6903F00103BB60BB680F4BDB690E4A6E
:10075C0043F08053D3610C4BDB6903F080537B6017
:10076C007B680A4B5B68FB60FB6823F0E063FB6013
:10077C00FB6843F08063FB60044AFB68536000BF76
:10078C001437BD4680BC7047001002400000014089
:10079C0080B400AFFEE780B400AFFEE780B400AFDA
:1007AC00FEE780B400AFFEE780B400AFFEE780B494
:1007BC0000AF00BFBD4680BC704780B400AF00BF27
:1007CC00BD4680BC704780B400AF00BFBD4680BC46
:1007DC00704780B500AF00F013F900BF80BD80B545
:1007EC0086B000AFF860B9607A6000237B610AE0E4
:1007FC00AFF300800146BB685A1CBA60CAB21A70CB
:10080C007B6901337B617A697B689A42F0DB7B6898
:10081C0018461837BD4680BD80B586B000AFF8606D
:10082C00B9607A6000237B6109E0BB685A1CBA602E
:10083C001B781846AFF300807B6901337B617A69C2
:10084C007B689A42F1DB7B6818461837BD4680BD41
:10085C0080B483B000AF78604FF0FF3318460C378C
:10086C00BD4680BC704780B483B000AF78603960FF
:10087C003B684FF400525A60002318460C37BD46B3
:10088C0080BC704780B483B000AF786001231846F9
:10089C000C37BD4680BC704780B485B000AFF860A3
:1008AC00B9607A60002318461437BD4680BC704787
:1008BC0080B586B000AF7860144A154BD31A7B61B3
:1008CC007B693B61134B1B68002B02D1114B124A05
:1008DC001A60104B1A687B6813443A699A4207D223
:1008EC0000F01CFF02460C2313604FF0FF3309E0AD
:1008FC00084B1B68FB60074B1A687B681344054A5E
:10090C001360FB6818461837BD4680BD00280020D0
:10091C00000400008C000020A000002080B400AF78
:10092C0000BFBD4680BC7047002103E00B4B5B58F9
:10093C00435004310A480B4B42189A42F6D30A4AE8
:10094C0002E0002342F8043B084B9A42F9D3FFF72C
:10095C00E5FF00F0E9FEFFF72FFD70474422000889
:10096C00000000207000002070000020A00000207B
:10097C00FEE7000080B500AF084B1B68074A43F048
:10098C0010031360032000F029F9002000F008F890
:10099C00FFF7CCFE0023184680BD00BF00200240AC
:1009AC0080B582B000AF7860124B1A68124B1B787E
:1009BC0019464FF47A73B3FBF1F3B2FBF3F3184619
:1009CC0000F033F90346002B01D001230EE07B68C5
:1009DC000F2B0AD8002279684FF0FF3000F009F98C
:1009EC00064A7B681360002300E001231846083791
:1009FC00BD4680BD0000002008000020040000203F
:100A0C0080B400AF054B1B781A46054B1B6813448A
:100A1C00034A136000BFBD4680BC7047080000202D
:100A2C009800002080B400AF024B1B681846BD46EE
:100A3C0080BC70479800002080B584B000AF78600F
:100A4C00FFF7F0FFB8607B68FB60FB68B3F1FF3F1A
:100A5C0005D0094B1B781A46FB681344FB6000BF9A
:100A6C00FFF7E0FF0246BB68D31AFA689A42F7D840
:100A7C0000BF1037BD4680BD0800002080B485B093
:100A8C0000AF78607B6803F00703FB600C4BDB68FE
:100A9C00BB60BA684FF6FF031340BB60FB681A02D9
:100AAC00BB68134343F0BF6343F40033BB60044A99
:100ABC00BB68D36000BF1437BD4680BC704700BF15
:100ACC0000ED00E080B400AF044BDB681B0A03F0C0
:100ADC0007031846BD4680BC704700BF00ED00E020
:100AEC0080B483B000AF03463960FB7197F90730CF
:100AFC00002B0ADB3B68DAB20C4997F9073012017C
:100B0C00D2B20B4483F800230AE03B68DAB20849FE
:100B1C00FB7903F00F03043B1201D2B20B441A769B
:100B2C0000BF0C37BD4680BC704700BF00E100E041
:100B3C0000ED00E080B489B000AFF860B9607A6075
:100B4C00FB6803F00703FB61FB69C3F10703042B8C
:100B5C0028BF0423BB61FB690433062B02D9FB6954
:100B6C00033B00E000237B614FF0FF32BB6902FACC
:100B7C0003F3DA43BB681A407B699A404FF0FF31AC
:100B8C007B6901FA03F3D9437B680B401343184686
:100B9C002437BD4680BC704780B582B000AF78600A
:100BAC007B68013BB3F1807F01D301230FE00A4A3C
:100BBC007B68013B53600F214FF0FF30FFF790FF34
:100BCC00054B00229A60044B07221A60002318463A
:100BDC000837BD4680BD00BF10E000E080B582B094
:100BEC0000AF78607868FFF749FF00BF0837BD4653
:100BFC0080BD80B586B000AF0346B9607A60FB73E8
:100C0C0000237B61FFF75EFF78617A68B9687869C9
:100C1C00FFF790FF024697F90F3011461846FFF781
:100C2C005FFF00BF1837BD4680BD80B582B000AFF6
:100C3C0078607868FFF7B0FF034618460837BD4662
:100C4C0080BD000080B48BB000AF786039600023A9
:100C5C007B6200233B6221E101227B6A02FA03F3EF
:100C6C00FB613B681B68FA691340BB61BA69FB699D
:100C7C009A4240F010813B685B68122B34D0122BE7
:100C8C000DD8022B2BD0022B04D8002B31D0012BEA
:100C9C001CD048E0032B43D0112B1BD043E0864AD9
:100CAC00934226D0844A934206D8844A934220D059
:100CBC00834A93421DD036E0824A934219D0824A2D
:100CCC00934216D0814A934213D02CE03B68DB68E8
:100CDC003B6228E03B68DB6804333B6223E03B6803
:100CEC00DB6808333B621EE03B68DB680C333B621D
:100CFC0019E03B689B68002B02D104233B6212E095
:100D0C003B689B68012B05D108233B627B68FA6921
:100D1C001A6108E008233B627B68FA695A6102E0B9
:100D2C0000233B6200BFBB69FF2B01D87B6801E04D
:100D3C007B6804337B61BB69FF2B02D87B6A9B0009
:100D4C0002E07B6A083B9B003B617B691A680F21C0
:100D5C003B6901FA03F3DB431A40396A3B6901FA38
:100D6C0003F31A437B691A603B685B6803F080539A
:100D7C00002B00F09080564B9B69554A43F00103C1
:100D8C009361534B9B6903F00103BB60BB68514AF1
:100D9C007B6A9B08023352F82330FB607B6A03F0BA
:100DAC0003039B000F2202FA03F3DB43FA681340A0
:100DBC00FB607B68484A93420DD07B68474A93425C
:100DCC0007D07B68464A934201D1022304E00323F7
:100DDC0002E0012300E000237A6A02F00302920091
:100DEC009340FA681343FB603A497B6A9B080233D1
:100DFC00FA6841F823203B685B6803F48033002BCE
:100E0C0006D0384B1A683749BB6913430B6006E0B0
:100E1C00344B1A68BB69DB43324913400B603B68A7
:100E2C005B6803F40033002B06D02E4B5A682D4917
:100E3C00BB6913434B6006E02A4B5A68BB69DB4322
:100E4C00284913404B603B685B6803F48013002B0C
:100E5C0006D0244B9A682349BB6913438B6006E088
:100E6C00204B9A68BB69DB431E4913408B603B687F
:100E7C005B6803F40013002B06D01A4BDA6819498F
:100E8C00BB691343CB6006E0164BDA68BB69DB43E6
:100E9C0014491340CB607B6A01337B623B681A6850
:100EAC007B6A22FA03F3002B7FF4D6AE00BF2C37FB
:100EBC00BD4680BC704700BF00002110000011101F
:100ECC00000012100000311000003210000022103F
:100EDC00001002400000014000080140000C0140DD
:100EEC00001001400004014080B485B000AF786070
:100EFC000B467B807B689A687B881340002B02D062
:100F0C000123FB7301E00023FB73FB7B18461437B2
:100F1C00BD4680BC704780B483B000AF78600B4690
:100F2C007B8013467B707B78002B03D07A887B68A0
:100F3C001A6103E07B881A047B681A6100BF0C37C6
:100F4C00BD4680BC7047000080B586B000AF7860AD
:100F5C007B68002B01D101236CE27B681B6803F0DA
:100F6C000103002B00F08780924B5B6803F00C03AD
:100F7C00042B0CD08F4B5B6803F00C03082B12D1A5
:100F8C008C4B5B6803F48033B3F5803F0BD1894BFA
:100F9C001B6803F40033002B6CD07B685B68002B60
:100FAC0068D1012346E27B685B68B3F5803F06D1CC
:100FBC00804B1B687F4A43F4803313602EE07B68C0
:100FCC005B68002B0CD17B4B1B687A4A23F4803373
:100FDC001360784B1B68774A23F4802313601DE061
:100FEC007B685B68B3F5A02F0CD1724B1B68714A00
:100FFC0043F4802313606F4B1B686E4A43F48033B9
:10100C0013600BE06B4B1B686A4A23F4803313604C
:10101C00684B1B68674A23F4802313607B685B680A
:10102C00002B13D0FFF7FEFC386108E0FFF7FAFC49
:10103C0002463B69D31A642B01D90323FAE15D4BB9
:10104C001B6803F40033002BF0D014E0FFF7EAFC2C
:10105C00386108E0FFF7E6FC02463B69D31A642BC3
:10106C0001D90323E6E1534B1B6803F40033002B37
:10107C00F0D100E000BF7B681B6803F00203002B7B
:10108C0063D04C4B5B6803F00C03002B0BD0494B2B
:10109C005B6803F00C03082B1CD1464B5B6803F414
:1010AC008033002B16D1434B1B6803F00203002B3B
:1010BC0005D07B681B69012B01D00123BAE13D4BA4
:1010CC001B6823F0F8027B685B69DB00394913432A
:1010DC000B603AE07B681B69002B20D0364B012259
:1010EC001A60FFF79FFC386108E0FFF79BFC024693
:1010FC003B69D31A022B01D903239BE12D4B1B68AF
:10110C0003F00203002BF0D02A4B1B6823F0F802EB
:10111C007B685B69DB00274913430B6015E0264BAA
:10112C0000221A60FFF77EFC386108E0FFF77AFCBA
:10113C0002463B69D31A022B01D903237AE11D4BDA
:10114C001B6803F00203002BF0D17B681B6803F0D3
:10115C000803002B3AD07B689B69002B19D0174BE6
:10116C0001221A60FFF75EFC386108E0FFF75AFCB9
:10117C0002463B69D31A022B01D903235AE10D4BCA
:10118C005B6A03F00203002BF0D0012000F0A8FAF8
:10119C001CE00A4B00221A60FFF744FC38610FE098
:1011AC00FFF740FC02463B69D31A022B08D90323F4
:1011BC0040E100BF00100240000042428004424265
:1011CC009E4B5B6A03F00203002BE9D17B681B6822
:1011DC0003F00403002B00F0A6800023FB75974B53
:1011EC00DB6903F08053002B0DD1944BDB69934AE0
:1011FC0043F08053D361914BDB6903F08053BB60A8
:10120C00BB680123FB758E4B1B6803F48073002BAA
:10121C0018D18B4B1B688A4A43F480731360FFF719
:10122C0001FC386108E0FFF7FDFB02463B69D31A6D
:10123C00642B01D90323FDE0814B1B6803F48073FD
:10124C00002BF0D07B68DB68012B06D17B4B1B6A33
:10125C007A4A43F0010313622DE07B68DB68002BB4
:10126C000CD1764B1B6A754A23F001031362734B46
:10127C001B6A724A23F0040313621CE07B68DB6870
:10128C00052B0CD16D4B1B6A6C4A43F004031362A3
:10129C006A4B1B6A694A43F0010313620BE0674B0C
:1012AC001B6A664A23F001031362644B1B6A634A90
:1012BC0023F0040313627B68DB68002B15D0FFF767
:1012CC00B1FB38610AE0FFF7ADFB02463B69D31A6C
:1012DC0041F28832934201D90323ABE0574B1B6A8E
:1012EC0003F00203002BEED014E0FFF79BFB3861F8
:1012FC000AE0FFF797FB02463B69D31A41F28832AA
:10130C00934201D9032395E04C4B1B6A03F0020373
:10131C00002BEED1FB7D012B05D1484BDB69474AF5
:10132C0023F08053D3617B68DB69002B00F0818054
:10133C00424B5B6803F00C03082B61D07B68DB69C4
:10134C00022B46D13F4B00221A60FFF76BFB386132
:10135C0008E0FFF767FB02463B69D31A022B01D961
:10136C00032367E0354B1B6803F00073002BF0D1AF
:10137C007B681B6AB3F5803F08D1304B5B6823F464
:10138C0000327B689B682D4913434B602B4B5B6889
:10139C0023F474127B68196A7B685B6A0B432749D8
:1013AC0013434B60274B01221A60FFF73BFB38615C
:1013BC0008E0FFF737FB02463B69D31A022B01D931
:1013CC00032337E01D4B1B6803F00073002BF0D098
:1013DC002FE01C4B00221A60FFF724FB386108E059
:1013EC00FFF720FB02463B69D31A022B01D90323DA
:1013FC0020E0124B1B6803F00073002BF0D118E0B7
:10140C007B68DB69012B01D1012313E00B4B5B687B
:10141C00FB60FB6803F480327B681B6A9A4206D13E
:10142C00FB6803F470127B685B6A9A4201D001235B
:10143C0000E0002318461837BD4680BD001002405E
:10144C00007000406000424280B584B000AF78600C
:10145C0039607B68002B01D10123D0E06A4B1B68FB
:10146C0003F007033A689A4210D9674B1B6823F0C4
:10147C00070265493B6813430B60634B1B6803F021
:10148C0007033A689A4201D00123B8E07B681B68D5
:10149C0003F00203002B20D07B681B6803F00403CD
:1014AC00002B05D0594B5B68584A43F4E0635360FA
:1014BC007B681B6803F00803002B05D0534B5B685B
:1014CC00524A43F460535360504B5B6823F0F00274
:1014DC007B689B684D4913434B607B681B6803F02A
:1014EC000103002B40D07B685B68012B07D1474B75
:1014FC001B6803F40033002B15D101237FE07B68BC
:10150C005B68022B07D1414B1B6803F00073002B67
:10151C0009D1012373E03D4B1B6803F00203002B40
:10152C0001D101236BE0394B5B6823F003027B682C
:10153C005B68364913434B60FFF774FAF8600AE0B6
:10154C00FFF770FA0246FB68D31A41F288329342D5
:10155C0001D9032353E02D4B5B6803F00C027B682D
:10156C005B689B009A42EBD1274B1B6803F0070387
:10157C003A689A4210D2244B1B6823F00702224986
:10158C003B6813430B60204B1B6803F007033A685E
:10159C009A4201D0012332E07B681B6803F00403FC
:1015AC00002B08D0194B5B6823F4E0627B68DB6886
:1015BC00164913434B607B681B6803F00803002B30
:1015CC0009D0124B5B6823F460527B681B69DB000B
:1015DC000E4913434B6000F021F801460B4B5B683E
:1015EC001B0903F00F030A4AD35C21FA03F3094ADF
:1015FC001360094B1B681846FFF7D2F900231846F5
:10160C001037BD4680BD00BF0020024000100240D4
:10161C00A0210008000000200400002090B48AB033
:10162C0000AF2A4B3C1D0FCB84E80F00284B1B88C6
:10163C003B800023FB610023BB6100237B62002302
:10164C007B6100233B62234B5B68FB61FB6903F00E
:10165C000C03042B02D0082B03D02DE01E4B3B6255
:10166C002DE0FB699B0C03F00F0307F128021344D8
:10167C0013F8243C7B61FB6903F48033002B13D0FB
:10168C00144B5B685B0C03F0010307F12802134455
:10169C0013F8283CBB617B690F4A02FB03F2BB6960
:1016AC00B2FBF3F37B6204E07B690C4A02FB03F3AD
:1016BC007B627B6A3B6202E0074B3B6200BF3B6A8A
:1016CC0018462837BD4690BC704700BF88210008DB
:1016DC00982100080010024000127A0000093D0019
:1016EC0080B485B000AF78600A4B1B680A4AA2FB35
:1016FC0003235B0A7A6802FB03F3FB6000BFFB6801
:10170C005A1EFA60002BF9D100BF1437BD4680BCBD
:10171C00704700BF00000020D34D6210014B1868C9
:10172C00704700BF0C00002070B500250C4E0D4C0E
:10173C00A41BA410A54209D100F0E0FC00250A4E20
:10174C000A4CA41BA410A54205D170BD56F8253037
:10175C0098470135EEE756F8253098470135F2E702
:10176C003C2200083C2200083C22000840220008D1
:10177C00931E222B10B50C4604D900231C460B706B
:10178C00204610BD0A2A09D1002807DA2D230B7038
:10179C0001214042214400F071F8F1E70021F9E702
:1017AC00FFF7E6BF03460244934200D1704703F8AB
:1017BC00011BF9E770B50E46054618B183690BB9E4
:1017CC0000F04AFAAB69AC6813B9284600F044FA49
:1017DC00234B9C4217D16C68A3891B071DD5236929
:1017EC00DBB1013EA36816F8011F013BA360E9B908
:1017FC00002B2EDA22460A21284600F07DF8013013
:10180C0011D00A2011E0174B9C4201D1AC68E3E7E0
:10181C00154B9C4208BFEC68DEE72146284600F0D9
:10182C00BDF80028DDD04FF0FF3070BD002B04DA7E
:10183C00A2699A4206DC0A2904D023685A1C226049
:10184C001970CFE72246284600F056F80130C9D16E
:10185C00E9E70A2023685A1C22601870E5E700BFEC
:10186C00FC2100081C220008DC210008024B014668
:10187C001868FFF79FBF00BF0C000020F0B58BB0BD
:10188C0005460C466E461B4B03F1200C3746186878
:10189C005968083303C763453E46F7D118681B796E
:1018AC0038603B71931E222B4FF0000304D9237038
:1018BC001C4620460BB0F0BD661EB5FBF2F002FBD9
:1018CC0010550AAF3D4415F8285C591C06F8015F09
:1018DC00054668B9224660542344191B101B8142EB
:1018EC00E7DD1178187802F8010B03F80119F4E719
:1018FC000B46E2E7B4210008F8B50E46144605463F
:10190C0018B183690BB900F0A7F9214B9C422AD17D
:10191C006C68A369A360A3891A072ED5236963B3E6
:10192C0023692068F6B2C01A63693746834204DC27
:10193C002146284600F026F928BBA3680130013B5C
:10194C00A36023685A1C22601E706369834204D012
:10195C00A389DB0719D50A2E17D12146284600F09A
:10196C0011F990B10FE00B4B9C4201D1AC68D0E760
:10197C00094B9C4208BFEC68CBE72146284600F097
:10198C000DF80028CCD04FF0FF373846F8BD00BF1B
:10199C00FC2100081C220008DC210008324B70B529
:1019AC001D6806460C4625B1AB6913B9284600F0F4
:1019BC0053F92E4B9C420FD16C68B4F90C309AB28F
:1019CC0015072CD4D00611D40922326043F0400301
:1019DC00A3814FF0FF303EE0254B9C4201D1AC6817
:1019EC00EBE7244B9C4208BFEC68E6E7510712D5A5
:1019FC00616B41B104F14403994202D0304600F0CE
:101A0C0019FA00236363A38923F02403A381002321
:101A1C00636023692360A38943F00803A3812369CE
:101A2C004BB9A38903F42073B3F5007F03D021468F
:101A3C00304600F0BFF9A28912F001030CD000234C
:101A4C00A36063695B42A361236953B9B4F90C3099
:101A5C0013F08000BAD170BD920758BF6369A360C0
:101A6C00F2E70020F7E700BF0C000020FC21000883
:101A7C001C220008DC2100088A892DE9F04105466A
:101A8C0010070C4658D44B68002B05DC0B6C002B54
:101A9C0002DC0020BDE8F081E66A002EF9D00023BC
:101AAC0012F480522F68216A2B6032D0606DA389AA
:101ABC005A0705D56368C01A636B0BB1236CC01A47
:101ACC0000230246E66A216A2846B047431CA389D4
:101ADC0006D129681D2948D8294ACA40D60744D5B9
:101AEC00002262602269D904226004D5421C01D113
:101AFC002B6803B96065616B2F600029C9D004F1B4
:101B0C004403994202D0284600F094F90020606307
:101B1C00C0E701232846B047411CC8D12B68002BD5
:101B2C00C5D01D2B01D0162B01D12F60B1E7A38995
:101B3C0043F04003A381ADE70F69002FA9D09307B1
:101B4C0018BF00230E6808BF4B69A6EB07080F608F
:101B5C008B60B8F1000F9CDD43463A46216A28465B
:101B6C00A66AB047002806DCA38943F04003A38192
:101B7C004FF0FF308EE70744A8EB0008E9E700BF01
:101B8C000100402038B50B6905460C46DBB118B195
:101B9C0083690BB900F060F80C4B9C4209D16C685E
:101BAC00B4F90C307BB121462846BDE83840FFF72C
:101BBC0063BF074B9C4201D1AC68F1E7054B9C42DB
:101BCC0008BFEC68ECE7002038BD00BFFC21000822
:101BDC001C220008DC210008002310B50446C0E9D3
:101BEC000033836081814366C281C0E90433836121
:101BFC00194608225C30FFF7D5FD054B2462636261
:101C0C00044BA362044BE362044B236310BD00BF7F
:101C1C00AD1F0008CF1F0008072000082B2000086C
:101C2C00014900F085B800BF911B000870B568250C
:101C3C004A1E55430E4605F1740100F047F904465F
:101C4C0040B10021C0E900160C30A06005F168021B
:101C5C00FFF7A8FD204670BD836910B5044633BB61
:101C6C00C0E912330365124B124A1B688262984218
:101C7C0004BF0123836100F01FF86060204600F070
:101C8C001BF8A060204600F017F80022E060042149
:101C9C006068FFF7A1FF01220921A068FFF79CFFF4
:101CAC0002221221E068FFF797FF0123A36110BD08
:101CBC00B02100082D1C0008F8B51B4B07461E6808
:101CCC00B36913B93046FFF7C7FF4836D6E901347C
:101CDC00013B03D5336833B13668F7E7B4F90C50E0
:101CEC006DB16834F4E704213846FFF79FFF30608C
:101CFC000028F1D10C2304463B602046F8BD0B4B69
:101D0C006566C4E90055A560C4E90335C4E9055509
:101D1C000822294604F15C00FFF744FDC4E90D5587
:101D2C00C4E91255E9E700BFB02100080100FFFF2C
:101D3C002DE9F84380468946002600F1480414B981
:101D4C003046BDE8F883D4E90175013F01D524681C
:101D5C00F5E7AB89012B07D9B5F90E30013303D068
:101D6C0029464046C84706436835EEE770B50E462F
:101D7C00B1F90E1096B0002914461D4607DA00235F
:101D8C002B60B3891A0610D44FF480630EE06A46B8
:101D9C0000F06CF90028F2DB019A02F47042A2F513
:101DAC0000535A425A412A60EEE740230020236038
:101DBC0016B070BD8B8973B59D0706460C4607D5CA
:101DCC0004F14703236023610123636102B070BDFA
:101DDC0001AB6A46FFF7CAFF00990546304600F092
:101DEC0075F848B9B4F90C309A05EFD423F0030315
:101DFC0043F00203A381E3E70D4BB362A389206098
:101E0C0043F08003A381009B20616361019B5BB164
:101E1C00B4F90E10304600F03BF928B1A38923F039
:101E2C00030343F00103A381A3891D43A581CDE7DF
:101E3C002D1C000838B50546002943D051F8043C48
:101E4C000C1F002BB8BFE41800F044F91E4A1368AD
:101E5C00104633B9636014602846BDE8384000F082
:101E6C003AB9A3420BD921686218934201BF1A6890
:101E7C005B685218226063600460EDE713465A6891
:101E8C000AB1A242FAD919685818A0420BD120689D
:101E9C000144581882421960DED11068526801441E
:101EAC0019605A60D8E702D90C232B60D4E720685C
:101EBC0021188A4201BF11685268091821606260BA
:101ECC005C60C9E738BD00BF9000002070B5CD1C28
:101EDC0025F0030508350C2D38BF0C25002D0646C2
:101EEC0001DBA94203D90C233360002070BD00F044
:101EFC00F1F8214A1468214691B9204C23681BB98A
:101F0C00304600F03DF820602946304600F038F8A5
:101F1C00431C24D10C233046336000F0DCF8E4E79A
:101F2C000B685B1B18D40B2B0FD90B60CC18CD5046
:101F3C00304600F0D0F804F10B00231D20F0070010
:101F4C00C31AD3D05A42E250D0E74B688C4216BF2A
:101F5C00636013600C46EBE70C464968CCE7C41C85
:101F6C0024F00304A04205D0211A304600F008F8F2
:101F7C000130CFD02560DBE79000002094000020DA
:101F8C0038B50023054C054608462360FEF790FC47
:101F9C00431C02D1236803B12B6038BD9C00002088
:101FAC0010B50C46B1F90E1000F096F80028ABBF36
:101FBC00636DA3891B1823F48053ACBF6365A381A5
:101FCC0010BD2DE9F0411F468B890546DB050C46FB
:101FDC00164605D502230022B1F90E1000F068F860
:101FEC00A389324623F48053A381B4F90E103B46E7
:101FFC002846BDE8F04100F017B810B50C46B1F911
:10200C000E1000F055F8431CA38915BF606523F42E
:10201C00805343F48053A38118BFA38110BDB1F941
:10202C000E1000F013B8000038B5054608461146EE
:10203C000022054C22601A46FEF7EEFB431C02D12F
:10204C00236803B12B6038BD9C00002038B50023F9
:10205C00054C054608462360FEF7FAFB431C02D1EB
:10206C00236803B12B6038BD9C00002038B50023D9
:10207C00064C0546084611462360FEF7F4FB431C4C
:10208C0002D1236803B12B6038BD00BF9C00002037
:10209C0038B50023054C054608462360FEF7F2FBD5
:1020AC00431C02D1236803B12B6038BD9C00002077
:1020BC0038B50546084611460022054C22601A46E2
:1020CC00FEF7EAFB431C02D1236803B12B6038BD39
:1020DC009C0000207047704738B5054608461146ED
:1020EC000022054C22601A46FEF779FB431C02D1F4
:1020FC00236803B12B6038BD9C000020F8B500BFED
:10210C00F8BC08BC9E467047F8B500BFF8BC08BCCC
:04211C009E46704724
:102120004553544143494F4E414D454E544F000095
:10213000444544454C00000053454A41000000001E
:1021400042454D2D56494E444F00000056414741EF
:102150005300000041475541524445004C4F544103
:10216000444F0000444953504F4E4956454C0000DF
:10217000000801400008014000080140000801403B
:1021800008001000200040000203040506070809AB
:102190000A0B0C0D0E0F1010010200000040105031
:1021A0000000000000000000010203040607080907
:1021B000100000203031323334353637383961621F
:1021C000636465666768696A6B6C6D6E6F70717267
:1021D000737475767778797A00000000000000004B
:1021E00000000000000000000000000000000000EF
:1021F00000000000000000000000000000000000DF
:1022000000000000000000000000000000000000CE
:1022100000000000000000000000000000000000BE
:1022200000000000000000000000000000000000AE
:0C223000000000000000000000000000A2
:04223C003101000864
:042240000D01000884
:102244000024F40010000000010000001000002031
:1022540000000000FC2100081C220008DC2100080A
:10226400000000000000000000000000000000006A
:10227400000000000000000000000000000000005A
:10228400000000000000000000000000000000004A
:10229400000000000000000000000000000000003A
:1022A400000000000000000000000000000000002A
:0400000508000935B1
:00000001FF
